:020000020000FC
:040000000C9431002B
:040010000C94C90083
:04002C000C94D90057
:100038000C94F5010E942600122C0E9426005C9A5E
:100048005C98089528E05F98169410F0289801C0ED
:10005800289A5F9A2A95B9F7089502E00AB90BB968
:1000680000E007B90FEF08B90FEF04B905B9F3E0DD
:10007800E4E003E001930FE9019305E201930DE049
:10008800019309E9019309E4019301E401930FE164
:10009800019301E0019309E0019301E1019301EC6F
:1000A800019303E6019305E8019301E6019301E753
:1000B8000193F3E0E0E00FEF01930FEF01930FEFEF
:1000C80001930FEF0193F3E0E4E108E8019304E4FE
:1000D800019302E2019301E10193F3E0EBE10FEFF9
:1000E8000193F3E0E8E10FEF0193F3E0E9E100E0C9
:1000F800019300E00193F3E0ECE100E0019300E0FC
:100108000193F3E0EFE10FEF019302E004BD05E096
:1001180005BD02E307BD02E000936E000F9300E007
:10012800009380000DE00093810000E000938900B7
:1001380004E10093880000916F00026000936F0053
:100148000F910F9304B1016004B905B1016005B9BD
:100158000AB100690AB90BB10F760BB90F9100E427
:100168000093C00008E00093C1000EE00093C200B5
:100178000FE00093C5000FEF0093C40002E0009366
:100188006C00009368007894FFCF0F920FB60F921F
:100198000F93009118030F3F19F400E00093180320
:1001A8000F910F900FBE0F9018950F920FB60F92E8
:1001B8000F931F93109118031F3F39F0103019F057
:1001C8000E945C0102C00E94EF001F910F910F90E6
:1001D8000FBE0F9018950F931F932F933F934F9334
:1001E8005F930E942602102F2091190330911A0361
:1001F800F1E0E0E0F20FE30F08F4F395108340918B
:100208001C0350911D03510F08F4439540931C03A0
:1002180050931D03339509F42395209319033093C4
:100228001A03223009F43030E1F56F937F938F93EE
:10023800642F6695669566956695742F7F70F3E0D2
:10024800E4E0E60F08F4F395808180930003F3E07F
:10025800E4E0E70F08F4F395808180930103652FAC
:100268006695669566956695752F7F70F3E0E4E070
:10027800E60F08F4F395808180930203F3E0E4E04D
:10028800E70F08F4F3958081809303038F917F91A2
:100298006F9151E05093180350E050931903509315
:1002A8001A035F914F913F912F911F910F910895DC
:1002B8000F931F932F933F934F93109119032091FE
:1002C8001A03123009F4203008F402C00C94E70134
:1002D8000E94ED010030D1F330911B03432F3F679B
:1002E8003F3FD1F0440F4093C6004FEF40931B03AC
:1002F800239509F413951093190320931A031230C8
:1003080009F4203018F300916C000D7F00936C0005
:1003180000E00093C10057C0F1E0E0E0F10FE20F08
:1003280008F4F39530813F932F931F930F93232F56
:100338002695269526952695132F1F703F931F9374
:1003480033270027322F3E6F3F3F11F41EE001276D
:10035800322F3D6F3F3F11F412E30127322F3B6FDD
:100368003F3F11F414E50127322F376F3F3F11F457
:1003780016E901271F913F910093C6003F932F93E1
:1003880033270027312F3E6F3F3F11F42EE002271D
:10039800312F3D6F3F3F11F422E30227312F3B6F8E
:1003A8003F3F11F424E50227312F376F3F3F11F407
:1003B80026E902272F913F91069500931B030F9181
:1003C8001F912F913F914F913F912F911F910F9125
:1003D80008950091C0000F6D0F3F0FB7069501708B
:1003E80008950F920FB60F920F930E9400020F917B
:1003F8000F900FBE0F9018950F920FB60F920F9394
:100408006F931F922F9260911E03F3E0E0E0E60FD6
:1004180008F4F3951080F3E0E4E1E60F08F4F395AF
:1004280020800E941E006395643051F060931E0383
:100438002F901F906F910F910F900FBE0F900895FE
:1004480060E0F4CF1F9300911F03102F110F110FBD
:10045800110F0127102F16951695169516951695B6
:0A046800012700931F031F91089560
:00000001FF
