:020000020000FC
:040000000C94390023
:040038000C946F02B3
:100048000C94A2000E942E00122C0E942E005C9A92
:100058005C98089528E05F98169410F0289801C0DD
:10006800289A5F9A2A95B9F7089500E00093C1008D
:1000780000E00AB9F7E0EDE003E001930FE901932E
:1000880005E201930DE0019309E9019309E4019365
:1000980001E401930FE1019301E0019309E0019369
:1000A80001E1019301EC019303E6019305E8019353
:1000B80001E6019301E70193F7E0E9E00FEF01930F
:1000C8000FEF01930FEF01930FEF0193F7E0EDE1CD
:1000D80008E8019304E4019302E2019301E101932A
:1000E800F7E0E1E200E0019300E0019302E004BDE3
:1000F80005E005BD02E307BD02E000936E000F9323
:1001080004B1016004B905B1016005B90AB100691B
:100118000AB90BB10F760BB90F9100E40093C00038
:1001280000E90093C1000EE00093C2000FE00093C5
:10013800C5000FEF0093C4007894FFCF0F920FB65D
:100148000F920F931F932F933F934F935F931091A9
:1001580021071F3F11F40C94D1001091C6001E7F97
:100168002091210730912207F3E0E3E0F20FE30F3B
:1001780008F4F3951083339509F423952093210708
:1001880030932207243009F4363038F00E94DB001F
:100198002FEF20932107209322075F914F913F91E2
:1001A8002F911F910F910F900FBE0F9018950F93DD
:1001B8001F932F933F934F935F93112722273FEF6E
:1001C8003F3F61F4F3E0E3E0F10FE20F08F4F39549
:1001D800F10FE20F08F4F3953081D7C0F3E0E3E0C4
:1001E800F10FE20F08F4F395F10FE20F08F4F3951D
:1001F800E39509F4F39540813F934F936F937F9371
:100208003F935F934F937F93772773956627532F79
:1002180044275695452756955695452756955695FC
:1002280045275695569545274E6F4F3F09F4770F4A
:10023800532F442756955695452756954527569545
:10024800569556954527569545274E6F4F3F11F4BD
:10025800770F770F532F44275695569556955695F1
:1002680045275695452756954527569545274E6F58
:100278004F3F21F4770F770F770F770F532F5727BB
:10028800752F776F7F3F09F46160752F7F6D7F3F12
:1002980009F46260752F7F6B7F3F09F46460752FE6
:1002A8007F677F3F09F468607F914F915F913F912D
:1002B8004F935F933F936F93662763957727542FE8
:1002C800332756953527569556953527569556957D
:1002D80035275695569535273E6F3F3F09F4660FEB
:1002E800542F3327569556953527569535275695C5
:1002F800569556953527569535273E6F3F3F11F44D
:10030800660F660F542F3327569556955695569572
:1003180035275695352756953527569535273E6FF7
:100328003F3F21F4660F660F660F660F542F56275E
:10033800652F676F6F3F09F47160652F6F6D6F3FB1
:1003480009F47260652F6F6B6F3F09F47460652F55
:100358006F676F3F09F478606F913F915F914F919C
:10036800562F550F550F550F550F572B7F916F91DE
:100378004F913F91F1E0E0E0F10FE20F08F4F395BF
:1003880050833FEF239509F41395123009F4233075
:1003980010F40C94E4004F935F936F937F938F93C3
:1003A8009F930F931F932F930E940702702F812F03
:1003B800922F2F911F910F914091000350910103AB
:1003C80060910203471769F4581759F4691749F4FB
:1003D8000F931F93052F162F0E9438021F910F911C
:1003E80002C00E942B029F918F917F916F915F9124
:1003F8004F9100E00093C1005F914F913F912F9181
:100408001F910F9108953F934F935F936F93112717
:100418002227332744275527F1E0E0E0F10FE20FC8
:1004280008F4F3956081560F18F4439509F4339551
:10043800239509F41395123009F4203068F3032F3B
:10044800142F252F6F915F914F913F9108950F932E
:10045800F7E0E9E001E6019305EF019305EF019369
:100468000FEF01930F9108950F931F932F933F93CD
:10047800202F2695269526952695F7E0EDE0E20FA4
:1004880008F4F395308130930907202F2F70F7E097
:10049800EDE0E20F08F4F395308130930A07212F3D
:1004A8002695269526952695F7E0EDE0E20F08F4C7
:1004B800F395308130930B07212F2F70F7E0EDE093
:1004C800E20F08F4F395308130930C073F912F9198
:1004D8001F910F9108950F920FB60F920F930E94DC
:1004E8007A020F910F900FBE0F9018950F920FB6CA
:1004F8000F920F936F931F922F9260912307F7E04B
:10050800E9E0E60F08F4F3951080F7E0EDE1E60F77
:1005180008F4F39520800E9426006395643051F01A
:10052800609323072F901F906F910F910F900FBE2C
:080538000F90089560E0F4CF7C
:00000001FF
