:020000020000FC
:040000000C94390023
:040038000C9413020F
:100048000C94B0000E942E00122C0E942E005C9A84
:100058005C98089528E05F98169410F0289801C0DD
:10006800289A5F9A2A95B9F7089502E00AB90BB958
:1000780000E007B90FEF08B90FEF04B905B9F1E0CF
:10008800E8E003E001930FE9019305E201930DE035
:10009800019309E9019309E4019301E401930FE154
:1000A800019301E0019309E0019301E1019301EC5F
:1000B800019303E6019305E8019301E6019301E743
:1000C8000193F1E0E4E00FEF01930FEF01930FEFDD
:1000D80001930FEF0193F1E0E8E108E8019304E4EC
:1000E800019302E2019301E10193F1E0EEE10FEFE8
:1000F80001930FEF0193F1E0ECE100E0019300E0E0
:10010800019302E004BD05E005BD02E307BD02E07E
:1001180000936E000F9304B1016004B905B101604A
:1001280005B90AB100690AB90BB10F760BB90F917D
:1001380000E40093C00000E00093C10000E90093D0
:10014800C1000EE00093C2000FE00093C5000FEF5E
:100158000093C4007894FFCF0F920FB60F920F93BD
:100168001F932F933F934F935F9310911C011F3F51
:1001780011F40C94AC011091C6001E7F20911E0151
:100188002E6F2F3F19F410931E01E2C020911E011B
:100198002F931F934F935F932F933F931F935F93D7
:1001A800552753954427322F11273695132736950F
:1001B8003695132736953695132736953695132792
:1001C8001E6F1F3F09F4550F322F112736953695AC
:1001D8001327369513273695369536951327369572
:1001E80013271E6F1F3F11F4550F550F322F11277C
:1001F80036953695369536951327369513273695C1
:100208001327369513271E6F1F3F21F4550F550FDF
:10021800550F550F322F3527532F576F5F3F09F46E
:100228004160532F5F6D5F3F09F44260532F5F6B4E
:100238005F3F09F44460532F5F675F3F09F44860EC
:100248005F911F913F912F911F933F932F934F934E
:10025800442743955527312F22273695232736954E
:1002680036952327369536952327369536952327B1
:100278002E6F2F3F09F4440F312F222736953695DC
:100288002327369523273695369536952327369591
:1002980023272E6F2F3F11F4440F440F312F2227AD
:1002A80036953695369536952327369523273695F0
:1002B8002327369523272E6F2F3F21F4440F440F11
:1002C800440F440F312F3427432F476F4F3F09F412
:1002D8005160432F4F6D4F3F09F45260432F4F6BCE
:1002E8004F3F09F45460432F4F674F3F09F458605C
:1002F8004F912F913F911F91342F330F330F330FAD
:10030800330F352B5F914F911F912F91F1E0EEE163
:100318000FEF019340911C0150911D01F1E0E0E0C5
:10032800F40FE50F08F4F3953083539509F44395DA
:1003380040931C0150931D01403009F4543040F0A3
:100348000E94B6014FEF5FEF40931C0150931D01CF
:100358005F914F913F912F911F910F910F900FBE79
:100368000F9018950F931F932F933F934F935F937D
:100378001127222733274427F1E0E0E0F10FE20FAD
:1003880008F4F3955081450F08F43395239509F443
:100398001395103009F4243078F3032F142F0E949A
:1003A800DC015F914F913F912F911F910F9108951B
:1003B8000F931F932F933F93202F269526952695CD
:1003C8002695F1E0E8E0E20F08F4F39530813093E8
:1003D8000401202F2F70F1E0E8E0E20F08F4F39514
:1003E800308130930501212F26952695269526954F
:1003F800F1E0E8E0E20F08F4F3953081309306016C
:10040800212F2F70F1E0E8E0E20F08F4F395308136
:10041800309307013F912F911F910F9108950F92EB
:100428000FB60F920F930E941E020F910F900FBEEE
:100438000F9018950F920FB60F920F936F931F920C
:100448002F9260911F01F1E0E4E0E60F08F4F395C4
:100458001080F1E0E8E1E60F08F4F39520800E94AF
:1004680026006395643051F060931F012F901F9010
:100478006F910F910F900FBE0F90089560E0F4CF29
:00000001FF
