:020000020000FC
:040000000C94390023
:040038000C943A02E8
:100048000C94A7000E942E00122C0E942E005C9A8D
:100058005C98089528E05F98169410F0289801C0DD
:10006800289A5F9A2A95B9F7089502E00AB90BB958
:1000780000E007B90FEF08B9F7E0E4E003E0019307
:100088000FE9019305E201930DE0019309E901935A
:1000980009E4019301E401930FE1019301E0019365
:1000A80009E0019301E1019301EC019303E6019357
:1000B80005E8019301E6019301E70193F7E0E0E029
:1000C8000FEF01930FEF01930FEF01930FEF0193E0
:1000D800F7E0E4E108E8019304E4019302E2019304
:1000E80001E10193F7E0E8E100E0019300E001930A
:1000F80002E004BD05E005BD02E307BD02E0009390
:100108006E000F9304B1016004B905B1016005B92F
:100118000AB100690AB90BB10F760BB90F9100E467
:100128000093C00000E00093C10000E90093C10003
:100138000EE00093C2000FE00093C5000FEF00939C
:10014800C4007894FFCF0F920FB60F920F931F93AE
:100158002F933F934F935F93109118071F3F11F40C
:100168000C94D6001091C6001E7F2091180730917C
:100178001907F3E0E0E0F20FE30F08F4F3951083BA
:10018800339509F4239520931807309319072430E1
:1001980009F4303038F00E94E0002FEF2093180760
:1001A800209319075F914F913F912F911F910F91C4
:1001B8000F900FBE0F9018950F931F932F933F9397
:1001C8004F935F93112722273FEF3F3F61F4F3E0FE
:1001D800E0E0F10FE20F08F4F395F10FE20F08F4F5
:1001E800F3953081D7C0F3E0E0E0F10FE20F08F4B7
:1001F800F395F10FE20F08F4F395E39509F4F395FD
:1002080040813F934F936F937F933F935F934F93B7
:100218007F93772773956627532F4427569545274D
:10022800569556954527569556954527569556956C
:1002380045274E6F4F3F09F4770F532F44275695A4
:1002480056954527569545275695569556954527CB
:10025800569545274E6F4F3F11F4770F770F532F61
:1002680044275695569556955695452756954527AC
:1002780056954527569545274E6F4F3F21F4770FE2
:10028800770F770F770F532F5727752F776F7F3F8C
:1002980009F46160752F7F6D7F3F09F46260752FE7
:1002A8007F6B7F3F09F46460752F7F677F3F09F498
:1002B80068607F914F915F913F914F935F933F9318
:1002C8006F93662763957727542F332756953527DD
:1002D80056955695352756955695352756955695DC
:1002E80035273E6F3F3F09F4660F542F3327569545
:1002F800569535275695352756955695569535274B
:10030800569535273E6F3F3F11F4660F660F542F01
:10031800332756955695569556953527569535272C
:1003280056953527569535273E6F3F3F21F4660F82
:10033800660F660F660F542F5627652F676F6F3F3E
:1003480009F47160652F6F6D6F3F09F47260652F56
:100358006F6B6F3F09F47460652F6F676F3F09F427
:1003680078606F913F915F914F91562F550F550FC0
:10037800550F550F572B7F916F914F913F91F1E09A
:10038800E0E0F10FE20F08F4F39550833FEF239577
:1003980009F41395123009F4203010F40C94E90094
:1003A8000E94DD015F914F913F912F911F910F9115
:1003B80008950F931F932F933F934F935F931127A4
:1003C800222733274427F1E0E0E0F10FE20F08F499
:1003D800F3955081450F08F43395239509F4139547
:1003E800123009F4203078F3032F142F0E940302EF
:1003F8005F914F913F912F911F910F9108950F9306
:100408001F932F933F93202F269526952695269563
:10041800F7E0E4E0E20F08F4F39530813093000749
:10042800202F2F70F7E0E4E0E20F08F4F395308115
:1004380030930107212F2695269526952695F7E0D6
:10044800E4E0E20F08F4F395308130930207212F9E
:100458002F70F7E0E4E0E20F08F4F3953081309371
:1004680003073F912F911F910F9108950F920FB697
:100478000F920F930E9445020F910F900FBE0F909D
:1004880018950F920FB60F920F936F931F922F929A
:1004980060911A07F7E0E0E0E60F08F4F3951080A2
:1004A800F7E0E4E1E60F08F4F39520800E942600C7
:1004B8006395643051F060931A072F901F906F91E5
:0E04C8000F910F900FBE0F90089560E0F4CFDB
:00000001FF
