:020000020000FC
:040000000C9431002B
:04002C000C94C4006C
:100038000C94A2010E942600122C0E9426005C9AB1
:100048005C98089528E05F98169410F0289801C0ED
:10005800289A5F9A2A95B9F7089502E00AB90BB968
:1000680000E007B90FEF08B90FEF04B905B9F1E0DF
:10007800E8E003E001930FE9019305E201930DE045
:10008800019309E9019309E4019301E401930FE164
:10009800019301E0019309E0019301E1019301EC6F
:1000A800019303E6019305E8019301E6019301E753
:1000B8000193F1E0E4E00FEF01930FEF01930FEFED
:1000C80001930FEF0193F1E0E8E108E8019304E4FC
:1000D800019302E2019301E10193F1E0EFE10FEFF7
:1000E8000193F1E0ECE100E00193F1E0EDE100E0E3
:1000F800019300E00193F1E0E0E200E0019300E009
:100108000193F1E0E3E20FEF019302E004BD05E0A3
:1001180005BD02E307BD02E000936E000F9300E007
:10012800009380000DE00093810000E000938900B7
:1001380004E60093880000916F00026000936F004E
:100148000F910F9304B1016004B905B1016005B9BD
:100158000AB100690AB90BB10F760BB90F9100E427
:100168000093C00008E00093C1000EE00093C200B5
:100178000FE00093C5000FEF0093C4007894FFCF01
:100188000F920FB60F920F931F9310911C0110300E
:1001980019F00E94150102C00E94D8001F910F910A
:1001A8000F900FBE0F9018950F931F932F933F93A7
:1001B8004F935F930E94D301102F20911D0130911E
:1001C8001E01F1E0E0E0F20FE30F08F4F39510836D
:1001D8004091200150912101510F08F4439540931B
:1001E800200150932101339509F4239520931D0193
:1001F80030931E01203009F4323061F4409302013B
:100208005093030151E050931C0150E050931D019D
:1002180050931E015F914F913F912F911F910F9124
:1002280008950F931F932F933F934F9310911D01A0
:1002380020911E01103009F4243008F402C00C94F7
:1002480094010E949A010030D1F330911F01432F8D
:100258003F673F3F71F0440F4093C6004FEF409314
:100268001F01239509F4139510931D0120931E0176
:1002780057C0F1E0E0E0F10FE20F08F4F3953081A8
:100288003F932F931F930F93232F269526952695FB
:100298002695132F1F703F931F9333270027322F64
:1002A8003E6F3F3F11F41EE00127322F3D6F3F3F65
:1002B80011F412E30127322F3B6F3F3F11F414E58D
:1002C8000127322F376F3F3F11F416E901271F919D
:1002D8003F910093C6003F932F9333270027312F78
:1002E8003E6F3F3F11F42EE00227312F3D6F3F3F15
:1002F80011F422E30227312F3B6F3F3F11F424E52D
:100308000227312F376F3F3F11F426E902272F913B
:100318003F91069500931F010F911F912F913F91D7
:100328004F913F912F911F910F9108950091C00017
:100338000F6D0F3F0FB70695017008950F920FB616
:100348000F920F930E94AD010F910F900FBE0F9067
:1003580018950F920FB60F920F936F931F922F92CB
:1003680060912201F1E0E4E0E60F08F4F3951080D3
:10037800F1E0E8E1E60F08F4F39520800E941E0002
:100388006395643051F0609322012F901F906F9114
:100398000F910F900FBE0F90089560E0F4CF1F9358
:1003A80000912301102F110F110F110F0127102F8A
:1003B80016951695169516951695012700932301FF
:0403C8001F910895E4
:00000001FF
